:08000000803102288731E92F4D
:10000A000234013400340534043403340134023434
:10001A0003340434053406340C3400340C3401340B
:10002A008C34003463340434F100710803191E2837
:10003A001F28432820006308F300F31F25282628D9
:10004A002728432871087302F200F21F2D282E2850
:10005A0034287308473E8600870181013E287308C9
:10006A00473E860087017208473E840085010008E2
:10007A008100FF30F0007008F30722280800730897
:10008A0072047104700403194B284C288528F9015D
:10009A00F90A5A280130F035F10DF20DF30D890BEA
:1000AA0050280130F8007808F907F31F5D285E2808
:1000BA004F2873087702031D6C2872087602031D05
:1000CA006C2871087502031D6C2870087402031CE1
:1000DA006F28702878287008F4027108F53B7208B6
:1000EA00F63B7308F73B0130F336F20CF10CF00CD7
:1000FA00890B79280130F902031D842885285E2896
:10010A007708F3007608F2007508F1007408F00029
:10011A0008000030FC000030FB000030FA0000301C
:10012A00F900730872047104700403199D289E284B
:10013A00DF28FD01FD0AAC280130F035F10DF20D82
:10014A00F30D890BA2280130F8007808FD07F31F88
:10015A00AF28B028A1280130F935FA0DFB0DFC0DA6
:10016A00890BB12873087702031DC5287208760225
:10017A00031DC52871087502031DC528700874027D
:10018A00031CC828C928D2287008F4027108F53B54
:10019A007208F63B7308F73B79140130F336F20C18
:1001AA00F10CF00C890BD3280130FD02031DDE2867
:1001BA00DF28B0287C08F3007B08F2007A08F100F7
:1001CA007908F0000800F10020006308F400F20149
:1001DA003F29F3017408F500F51FF428F528F628DD
:1001EA00372975087406031DFB28FC280D29750894
:1001FA00473E8600870106300102031C05290629AD
:10020A000829F301F30A7508473E86008701810130
:10021A007508803AF0007408803AF002031816292B
:10022A00172932297308F0007508473E86008701AE
:10023A00700881077508473E860087010A30010267
:10024A00031C2829292931297508473E8600870178
:10025A008101F301F30A3229F301FF30F00070083B
:10026A00F507F128FF30F0007008F4070130F000BC
:10027A007008F20771087202031C44294529EE2806
:10028A00080071082000D2007008D10057290430F4
:10029A00E4006A290630E4006A290630E400DF0136
:1002AA00DF0A6A297808FA00FB017B08003A031979
:1002BA005F296A297A08013A03194C29073A03196E
:1002CA004F29013A031952296A296408FF3EE300BB
:1002DA007608E6007708E5007908E2000130FA00BE
:1002EA00760A7829FA35890B77297A08FF3AFB00CA
:1002FA0074088600750887007B0881050130FA00BA
:10030A00770A8829FA35890B87297A08FF3AFB0088
:10031A0074088600750887007B0881050130FA0099
:10032A00760A9829FA35890B97297A08FB007B08FF
:10033A0021008C040130FA00770AA429FA35890BC6
:10034A00A3297A08FB007B088C04080020006308B4
:10035A00A900AA01B9292A08473E86008701810116
:10036A000130A4002408AA0764082A02031CBE2933
:10037A00BF29B0290F2AA91BC329C429072A00307B
:10038A00F3000030F2000030F1000A30F0002308D8
:10039A00F7002208F6002108F5002008F400803151
:1003AA004420813173082000A8007208A700710850
:1003BA00A6007008A5002908473E8600870125087F
:1003CA0081000030F3000030F2000030F1000A3002
:1003DA00F0002308F7002208F6002108F50020089B
:1003EA00F40080318E20813173082000A300720846
:1003FA00A2007108A1007008A000FF30A400240820
:10040A00A9070F2A0030A3000030A2000030A10083
:10041A000030A0002308220421042004031D162A08
:10042A00172AC02908000310720D730DF900790804
:10043A00031D202A212A2A2A0030F3000030F20064
:10044A000030F1000030F000872A7008F4007108CB
:10045A00F5007208F6007308F7001F30F736F60C3D
:10046A00F50CF40C890B332A7408F800F217FF30E4
:10047A00F005FF30F105FF30F2050030F305963044
:10048A00F902F91F492A4A2A622A7908803A973ECC
:10049A000318502A512A522A212A0130F336F20C23
:1004AA00F10CF00C890B532A0130F4007408F90797
:1004BA00031D602A612A522A772A20307902031CF6
:1004CA00672A682A722A212A0130F035F10DF20DC5
:1004DA00F30D890B6A2A0130F9027908031D762A7D
:1004EA00772A692A780803197B2A7C2A872AF0093D
:1004FA00F109F209F309F00A0319F10A0319F20AD8
:10050A000319F30A080026308600003087000630F7
:10051A00F50000301E00F50B8F2A20006008031931
:10052A00972A992A01309A2A0030AC00AE01D32AC0
:10053A002E08473E860087010108003E8400883065
:10054A000318013E85000008AD002C08031DAE2AE1
:10055A00AF2AC02A2E08473E860087010108031DDC
:10056A00B72AB82AC02A63082E020318BD2ABE2A4F
:10057A00C92AAD01C92AAC01AC0A2E086106031DBD
:10058A00C72AC82AC92AAD172E08263E860087011F
:10059A002D0881000130F5007508AE0764082E02A7
:1005AA00031CD82AD92A9D2A8F31512782314030FB
:1005BA0083313D2382318F31BD2782318F315127DB
:1005CA008231C03083313D23823120005F08031914
:1005DA00EF2AF02A182B413086000030870020309D
:1005EA008400003085000630F50016001A00F50B6D
:1005FA00FA2AAE01112B2E08203E86008701010837
:10060A00263E86008701010883313D23823101306D
:10061A00F50075082000AE0764082E02031C162B8D
:10062A00172B002B2D2BAE01272B2E08263E8600DA
:10063A008701010883313D2382310130F5007508B5
:10064A002000AE0764082E02031C2C2B2D2B1A2B1C
:10065A008F31BD2782318F315127823120006208C4
:10066A00883E83313D2382318F31BD278231080094
:10067A00F300F4010130F0002000650A452BF03543
:10068A00890B442B7008FF3AF100710821008C0590
:10069A000130F0002000650A532BF035890B522BEC
:1006AA007008FF3AF100710822008C050D30890BA1
:1006BA005C2B0000731C622B632B712B0130F00042
:1006CA002000660A692BF035890B682B7008F10047
:1006DA00710821008C048D2B0130F0002000660A7D
:1006EA00772BF035890B762B7008FF3AF1007108E9
:1006FA0021008C050130F0002000660A852BF035B8
:10070A00890B842B7008FF3AF100710822008C05CE
:10071A000D30890B8E2B00007336F3000130F00088
:10072A002000650A992BF035890B982B7008F10087
:10073A00710821008C040D30890BA12B00000130B7
:10074A00F0007008F40708307402031CAD2BAE2BBE
:10075A003F2B0130F0002000650AB42BF035890BDD
:10076A00B32B7008FF3AF100710821008C050130A3
:10077A00F0002000650AC22BF035890BC12B7008E6
:10078A00FF3AF100710822008C050130F0002000C8
:10079A00660AD02BF035890BCF2B7008F10071084F
:1007AA0021008C040130F0002000660ADD2BF035B0
:1007BA00890BDC2B7008FF3AF100710822008C05C6
:1007CA000D30890BE62B00000130F0002000650A8D
:1007DA00EF2BF035890BEE2B7008F1007108210020
:1007EA008C040D30890BF72B00000130F00020003B
:1007FA00660A002CF035890BFF2B70080C05F200F5
:10080A007208031D092C0A2C252C0130F000660AF7
:10081A000F2CF035890B0E2C7008FF3AF100710885
:10082A0021008C050130F0002000660A1D2CF035ED
:10083A00890B1C2C7008FF3AF100710822008C0504
:10084A000D30890B262C00000130F0002000650ACB
:10085A002F2CF035890B2E2C7008FF3AF100710805
:10086A0021008C050130F0002000650A3D2CF0358E
:10087A00890B3C2C7008FF3AF100710822008C05A4
:10088A000D30890B462C0000080005302000B80006
:10089A000F30B700F130890B502CB70B502CB80B26
:1008AA00502C8F313E2784318C30F0000030F1001B
:1008BA000C30F2000030F3000C30F4000130F50087
:1008CA000430F600F701F801F80A0230F900813124
:1008DA004621843100302000B2000030B1000430DB
:1008EA00B000D230AF005308B3005D08B4005C0812
:1008FA00B5005B08B6008F31952784312930200076
:10090A00B8009630B7007F30890B892CB70B892C39
:10091A00B80B892C00302000B2000030B100003042
:10092A00B0000130AF005308B3005D08B4005C08A2
:10093A00B5005B08B6008F31952784312930200035
:10094A00B8009630B7007F30890BA92CB70BA92CB9
:10095A00B80BA92C2000DC01DC0A0030B200003000
:10096A00B1000030B0000130AF005308B3005D0899
:10097A00B400B501B50A5B08B6008F3195278431FA
:10098A0029302000B8009630B7007F30890BCB2C75
:10099A00B70BCB2CB80BCB2C42302000BC00C73095
:1009AA00BB00FA30BA00E130B9004230A300C830C7
:1009BA00A2000030A1000030A0003C08A7003B08BC
:1009CA00A6003A08A5003908A4008531AE2584316D
:1009DA0020002308BC002208BB002108BA00200816
:1009EA00B9003C08F3003B08F2003A08F100390864
:1009FA00F00082311822843173082000C000720886
:100A0A00BF007108BE007008BD00D301D30A4008B8
:100A1A00B2003F08B1003E08B0003D08AF00B30184
:100A2A00B30A5D08B400B501B50A5B08B6008F3198
:100A3A009527843129302000B8009630B7007F30DE
:100A4A00890B252DB70B252DB80B252D41302000FC
:100A5A00BC002730BB005C30BA002930B9004230F4
:100A6A00A300C830A2000030A1000030A0003C085A
:100A7A00A7003B08A6003A08A5003908A40085315A
:100A8A00AE25843120002308BC002208BB002108BF
:100A9A00BA002008B9003C08F3003B08F2003A0803
:100AAA00F1003908F00082311822843173082000DD
:100ABA00C0007208BF007108BE007008BD00DD01E9
:100ACA00DD0A4008B2003F08B1003E08B0003D0808
:100ADA00AF00B301B30AB401B40AB501B50A5B08A1
:100AEA00B6008F319527843152302000B8002B3060
:100AFA00B7000030890B7F2DB70B7F2DB80B7F2DE8
:100B0A0000002000DB01DB0A0230D3004008B200FB
:100B1A003F08B1003E08B0003D08AF000230B30004
:100B2A00B401B40AB501B50AB601B60A8F319527E0
:100B3A00843152302000B8002B30B7000030890BC6
:100B4A00A42DB70BA42DB80BA42D0000AB2D80311A
:100B5A000228200023088039A8002335AE00A21FEE
:100B6A00B72DB82DB92D2E142E080319BD2DBE2D63
:100B7A00CD2D2E0A031DC22DC32DCB2D0030A3006F
:100B8A000030A2000030A1000030A000A217D52D2D
:100B9A000030A3000030A2000030A1000030A00005
:100BAA0027088039F9007908A8062735AD00A61F5D
:100BBA00DF2DE02DE12D2D142D080319E52DE62D4D
:100BCA00F52D2D0A031DEA2DEB2DF32D0030A7007C
:100BDA000030A6000030A5000030A400A617FD2DA5
:100BEA000030A7000030A6000030A5000030A400A5
:100BFA002D080319012E022E072E2E08031D062E7C
:100C0A00072E102E0030A3000030A2000030A100F1
:100C1A000030A000E82F2008F00026088F31722744
:100C2A00853171082000B4007008B3003308F90058
:100C3A00FA01FB01FC017C08AC007B08AB007A08D6
:100C4A00AA007908A9003408F900FA01FB01FC019D
:100C5A007C08B2007B08B1007A08B0007908AF00BE
:100C6A002108F00025088F3172278531710820008C
:100C7A00B4007008B3003308F900FA01FB01FC0163
:100C8A007908A9077A08AA3D7B08AB3D7C08AC3DE8
:100C9A003408F900FA01FB01FC017908AF077A0868
:100CAA00B03D7B08B13D7C08B23D2208F000240823
:100CBA008F317227853171082000B4007008B300A3
:100CCA003308F900FA01FB01FC017908A9077A083F
:100CDA00AA3D7B08AB3D7C08AC3D3408F900FA011B
:100CEA00FB01FC017908AF077A08B03D7B08B13DEA
:100CFA007C08B23D0830A935AA0DAB0DAC0D890BA5
:100D0A00802E2108F00024088F317227853171085E
:100D1A002000B4007008B3003308A9073408AA3DBC
:100D2A000030AB3DAC3D2008F00025088F3172271A
:100D3A00853171082000B4007008B3003308A90790
:100D4A003408AA3D0030AB3DAC3D0830A935AA0DA8
:100D5A00AB0DAC0D890BAB2E2008F00024088F31A7
:100D6A007227853171082000B4007008B300330877
:100D7A00A9073408AA3D0030AB3DAC3D2108F0007C
:100D8A0026088F317227853171082000B400700857
:100D9A00B3003308AF073408B03D0030B13DB23D6F
:100DAA002208F00025088F3172278531710820004A
:100DBA00B4007008B3003308AF073408B03D003000
:100DCA00B13DB23D2208F00026088F3172278531E5
:100DDA0071082000B4007008B3003308F900340821
:100DEA00FA00FB01FC010830F935FA0DFB0DFC0D88
:100DFA00890BF92E7908AF077A08B03D7B08B13D17
:100E0A007C08B23D2908F9002A08FA002B08FB00E1
:100E1A002C08FC001830FC36FB0CFA0CF90C890B78
:100E2A00102F7908AF077A08B03D7B08B13D7C08DE
:100E3A00B23D0830A935AA0DAB0DAC0D890B1F2F99
:100E4A002E082D07F900FA01FA0D7908823EB3003F
:100E5A00FF307A3DB400482F0130AF35B00DB10DE7
:100E6A00B20D890B322FAC1F3B2F3C2F3D2F2F1475
:100E7A000130A935AA0DAB0DAC0D890B3E2FFF3001
:100E8A00B307FF30B43DB11F4B2F4C2F312FAD01AB
:100E9A00AC1F502F512F6D2FFF302905F900FF305D
:100EAA002A05FA00FF302B05FB007F302C05FC00D9
:100EBA007C087B047A0479040319642F652F682F50
:100ECA00AD01AD0A6D2F2F1C6B2F6C2F6D2F652F67
:100EDA002D080319712F722F9A2F0130AF07003096
:100EEA00B03D0030B13D0030B23D321C7D2F7E2F27
:100EFA009A2F2F08F9003008FA003108FB0032084F
:100F0A00FC000130FD00FC37FB0CFA0CF90CFD0B60
:100F1A00882F7C08B2007B08B1007A08B0007908F3
:100F2A00AF000130B3070030B43D3408803AF9000D
:100F3A0080307902031DA32FFF303302031CA62F32
:100F4A00A72FB12F7F302000B2008030B1000030CF
:100F5A00B0000030AF00DC2F20003408803AF900DE
:100F6A0080307902031DBB2F013033020318BE2FD4
:100F7A00BF2FCA2F00302000B2000030B10000306D
:100F8A00B0000030AF00A801DC2F20003308AE000B
:100F9A00FF30AF05FF30B0057F30B1050030B20534
:100FAA002E1CD82FD92FDA2FB1172E36B2002808C7
:100FBA00F9007908B2043208A3003108A200300807
:100FCA00A1002F08A00008000530840080308500A9
:100FDA00413086000030870014308F31382787313E
:100FEA00553084000030850012308F313227873126
:100FFA00200084314A2C3F3406345B344F34663443
:10100A006D347D3407347F346F3400340234013454
:0A101A00113480348834C0344034AF
:101E6400640080010131890B332F0034FE0012001D
:101E74001E00FE0B392F0034F030210099002000A1
:101E84008C01113021008C00073022009100883031
:101E94002100950023008C0121009D0108000130E0
:101EA400F0002000660A572FF035890B562F700872
:101EB400FF3AF100710821008C050130F000200088
:101EC400660A652FF035890B642F7008FF3AF1001C
:101ED400710822008C050D30890B6E2F000008005C
:101EE400F800F401F5017008F200F3017208F6003D
:101EF4007308F700781C7F2F802F842F7608F4074F
:101F04007708F53D0130F635F70D890B852F031061
:101F1400F80C7808031D8F2F902F7C2F7508F10083
:101F24007408F000080020003508E0003308E100E0
:101F34003208A3003108A2003008A1002F08A00035
:101F44008131AB218F31200034080319AA2FAB2F24
:101F5400AF2F34088031E8208F3120003608031970
:101F6400B42FB52FB92F3608803119208F31823123
:101F740088228F3108000130F0002000660AC32F48
:101F8400F035890BC22F7008FF3AF1007108210067
:101F94008C050130F0002000660AD12FF035890B42
:101FA400D02F7008FF3AF100710822008C050D3023
:101FB400890BDA2F00000130F0002000650AE32FBE
:101FC400F035890BE22F7008F100710821008C04B0
:101FD4000D30890BEB2F00000130F0002000660A61
:101FE400F42FF035890BF32F7008F10071082100EC
:0C1FF4008C040D30890BFC2F000008004D
:020000040001F9
:08000000FF3FFF3FFF3FFF3F00
:04000E00E40FFF1FDD
:00000001FF
